:020000020000FC
:1000000001020507080C1400000A01190600F0E0BF
:10001000E0E01124B2E0A0E03324989439F0059098
:10002000031420F00D92302C1394F8CF212C0024CF
:100030003324989419F00D922394FCCFF0E0E8E07B
:100040002227253051F0D2E0C0E08D2E9C2EA12C2D
:10005000B59004D0182E2395F4CFFFCF0F92002433
:100060001F921A2C0F930B2DBF93B82DAF93A92D70
:100070001F93101430F01D91011718F069F00394CC
:10008000F8CF0E9303941196101428F00C911D9341
:10009000102F0394F9CF1394812D1F91AF91BF912D
:0800A0000F911F900F900895CD
:00000001FF
