:020000020000FC
:10000000040600000300D1E2CFEFDEBFCDBFF0E079
:10001000E0E044911124B2E0A0E0989431F0059022
:10002000002019F00D921394F9CF212C00243324D1
:10003000989419F00D922394FCCFF0E0E4E035E0C1
:10004000C32ED2E0C0E08D2E9C2E042F0C1919F087
:1000500020F002E003C001E001C000E0D02EB59026
:10006000BB2021F0A12C03D0182EF9CFFFCF8A2D71
:10007000BC1409F408950F9200241F921A2CFF92C9
:10008000FF240F930B2DBF93B82DAF93A92D1F9372
:100090002F9322273F933D2D3130E0F0BC1468F0C0
:1000A000101498F11D91011730F0C9F1121718F0D2
:1000B000212F0394F5CF11972AC0012CA00DBF1D4D
:1000C000002031F01E91011718F049F10A94F8CF81
:1000D00011961DC0BC1468F0012CA00DBF1D00209E
:1000E00031F01E91101718F0D1F00A94F8CF119644
:1000F0000EC02FEF101448F01D91101730F079F05A
:10010000211718F0212F0394F5CF119700C0101478
:1001100028F01C910D93012F0394F9CF1394812D96
:100120003F912F911F91AF91BF910F91FF901F9021
:040130000F9008958F
:00000001FF
