:020000020000FC
:040000000C9430002C
:10005C000C9469000FEF13E007B913BB05E0FF2404
:10006C00F39411271093000210930102112714BD71
:10007C0011E015BD11E010936E007894FFCF3F9303
:10008C002F930F9200240394332721E0001529F0BD
:10009C00220F331F23950394F9CF28B934BB0F904B
:1000AC002F913F910895FF2021F003950A3039F0EC
:1000BC0004C00A95002329F000C0E1DF0895FA94EA
:1000CC00FCCFF394FACF809100029091010201963B
:1000DC0010E08A30910729F080930002909301027E
:1000EC001895112710930002109301020E945900D9
:0200FC00189555
:00000001FF
