:020000020000FC
:10000000D1E2CFEFDEBFCDBF0FEF13E007B913BBD7
:1000100010EF3FEE222730930B010FEF0A95F1F717
:10002000009109010F700F3069F031E01127402F66
:10003000432321F40ED028D00C9409001395330FDC
:100040000C941700233029F30894331F23950C9444
:100050000B00233049F0133059F0012F000F010F2E
:10006000020F03950C9443000AE0010F0C94430027
:10007000203029F0213031F00FE00C9443000EE0E5
:100080000C944300002708953F932F930F92002470
:100090000394332721E0001529F0220F331F239505
:1000A0000394F9CF28B934BB0F902F913F91089555
:00000001FF
